:020000040000FA
:100000000C9462000C948A000C948A000C948A0070
:100010000C948A000C948A000C948A000C948A0038
:100020000C948A000C948A000C948A000C948A0028
:100030000C948A000C948A000C948A000C948A0018
:100040000C948C020C948A000C94FC020C94D60242
:100050000C948A000C948A000C948A000C948A00F8
:100060000C948A000C948A000000000023002600F3
:10007000290000000000240027002A0000000000E2
:10008000250028002B0004040404040404040202D4
:100090000202020203030303030301020408102007
:1000A0004080010204081020010204081020000012
:1000B0000008000201000003040700000000000027
:1000C0000000340511241FBECFEFD8E0DEBFCDBF46
:1000D00011E0A0E0B1E0EAEAFEE002C005900D9276
:1000E000A435B107D9F721E0A4E5B1E001C01D9224
:1000F000AA3FB207E1F710E0C2E6D0E004C02197C2
:10010000FE010E944D07C136D107C9F70E94730353
:100110000C9453070C94000090E0FC01E255FF4F53
:100120002491FC01E656FF4F3491FC01EA57FF4F42
:10013000E491EE23C9F0222339F0233001F1A8F431
:10014000213019F1223029F1F0E0EE0FFF1FE458C1
:10015000FF4FA591B4918FB7F894EC91611126C02F
:1001600030953E233C938FBF08952730A9F0283067
:10017000C9F0243049F7809180008F7D03C08091C1
:1001800080008F7780938000DFCF84B58F7784BD28
:10019000DBCF84B58F7DFBCF8091B0008F778093CC
:1001A000B000D2CF8091B0008F7DF9CF3E2BDACF57
:1001B000CF93DF9390E0FC01E656FF4F24918A57DE
:1001C0009F4FFC0184918823D1F090E0880F991F04
:1001D000FC01EE58FF4FA591B491FC01E458FF4F8C
:1001E000C591D49161110EC09FB7F8948C91E22F04
:1001F000E0958E238C932881E223E8839FBFDF91D3
:10020000CF9108958FB7F894EC91E22BEC938FBFC8
:10021000F6CF3FB7F8948091590190915A01A0917F
:100220005B01B0915C0126B5A89B05C02F3F19F07A
:100230000196A11DB11D3FBFBA2FA92F982F882766
:10024000BC01CD01620F711D811D911D42E0660F41
:10025000771F881F991F4A95D1F70895AF92BF92D3
:10026000CF92DF92EF92FF920F931F93CF93DF9382
:100270006C017B018B01040F151FEB015E01AE18B1
:10028000BF08C017D10759F06991D601ED91FC91D3
:100290000190F081E02DC6010995892B79F7C50100
:1002A000DF91CF911F910F91FF90EF90DF90CF9052
:1002B000BF90AF900895FC01538D448D252F30E001
:1002C000842F90E0821B930B541710F0CF96089563
:1002D00001970895FC01918D828D981761F0A28D90
:1002E000AE0FBF2FB11D5D968C91928D9F5F9F7356
:1002F000928F90E008958FEF9FEF0895FC01918D0C
:10030000828D981731F0828DE80FF11D858D90E078
:1003100008958FEF9FEF0895FC01918D228D892F15
:1003200090E0805C9F4F821B91098F7399270895FD
:100330008DE591E00E948C0121E0892B09F420E0F9
:10034000822F089580E090E0892B29F00E94980187
:1003500081110C9400000895FC01A48DA80FB92F01
:10036000B11DA35ABF4F2C91848D90E001968F73DD
:100370009927848FA689B7892C93A089B1898C91FC
:10038000837080648C93938D848D981306C002884B
:10039000F389E02D80818F7D80830895EF92FF9215
:1003A0000F931F93CF93DF93EC0181E0888F9B8D98
:1003B0008C8D98131AC0E889F989808185FF15C052
:1003C0009FB7F894EE89FF896083E889F989808175
:1003D0008370806480839FBF81E090E0DF91CF9144
:1003E0001F910F91FF90EF900895F62E0B8D10E066
:1003F0000F5F1F4F0F731127E02E8C8D8E110CC0D5
:100400000FB607FCFACFE889F989808185FFF5CF1F
:10041000CE010E94AC01F1CFEB8DEC0FFD2FF11D51
:10042000E35AFF4FF0829FB7F8940B8FEA89FB895C
:1004300080818062CFCFCF93DF93EC01888D8823BA
:10044000B9F0AA89BB89E889F9898C9185FD03C037
:10045000808186FD0DC00FB607FCF7CF8C9185FF1C
:10046000F2CF808185FFEDCFCE010E94AC01E9CFB4
:10047000DF91CF910895FC0101900020E9F73197B9
:10048000AF01481B590BBC018DE591E00C942E0186
:100490008F929F92AF92BF920F931F93CF93DF9350
:1004A000CDB7DEB7A1970FB6F894DEBF0FBECDBFB4
:1004B00019A2423008F44AE08E010F5D1F4F842ECE
:1004C000912CB12CA12CA50194010E942B07E62FA1
:1004D000B901CA01EA30F4F4E05DD801EE938D0170
:1004E000232B242B252B79F790E080E0109719F02F
:1004F000CD010E943B02A1960FB6F894DEBF0FBE5D
:10050000CDBFDF91CF911F910F91BF90AF909F9082
:100510008F900895E95CE1CF1F920F920FB60F9272
:1005200011242F933F938F939F93AF93BF93809109
:10053000550190915601A0915701B0915801309109
:10054000540123E0230F2D3758F50196A11DB11D4D
:10055000209354018093550190935601A093570125
:10056000B09358018091590190915A01A0915B017B
:10057000B0915C010196A11DB11D8093590190932A
:100580005A01A0935B01B0935C01BF91AF919F9121
:100590008F913F912F910F900FBE0F901F90189544
:1005A00026E8230F0296A11DB11DD2CF1F920F92F4
:1005B0000FB60F9211242F933F934F935F936F9336
:1005C0007F938F939F93AF93BF93EF93FF938DE5AB
:1005D00091E00E94AC01FF91EF91BF91AF919F918B
:1005E0008F917F916F915F914F913F912F910F90DC
:1005F0000FBE0F901F9018951F920F920FB60F927B
:1006000011242F938F939F93EF93FF93E0916D01AC
:10061000F0916E018081E0917301F091740182FD8F
:100620001BC09081809176018F5F8F73209177013D
:10063000821741F0E0917601F0E0E35AFE4F958F8A
:1006400080937601FF91EF919F918F912F910F9061
:100650000FBE0F901F9018958081F4CFCF92DF923C
:10066000EF92FF920F931F93E82FF92F05C00150CF
:1006700011092109310961F1908196239417B9F389
:1006800005C0015011092109310911F1908196230A
:100690009413F7CFC12CD12CE12CF12C0AC08FEF91
:1006A000C81AD80AE80AF80A0C151D052E053F05D8
:1006B00079F080818623841791F36C2D7D2D8E2D0A
:1006C0009F2D1F910F91FF90EF90DF90CF90089595
:1006D00060E070E080E090E01F910F91FF90EF905C
:1006E000DF90CF900895789484B5826084BD84B5FE
:1006F000816084BD85B5826085BD85B5816085BD1D
:1007000080916E00816080936E00109281008091D4
:10071000810082608093810080918100816080935C
:100720008100809180008160809380008091B10081
:1007300084608093B1008091B00081608093B000AC
:1007400080917A00846080937A0080917A00826040
:1007500080937A0080917A00816080937A00809102
:100760007A00806880937A001092C10061E089E08D
:100770000E94D80060E08AE00E94D80061E083E037
:100780000E94D800E0916D01F0916E0182E08083BB
:10079000E0916901F0916A011082E0916B01F091A2
:1007A0006C018FEC808310927501E0917101F091E2
:1007B000720186E08083E0916F01F0917001808189
:1007C00080618083E0916F01F09170018081886089
:1007D0008083E0916F01F091700180818068808357
:1007E000E0916F01F091700180818F7D8083C3E083
:1007F000D0E033E2A32EB12C40E9242E40E0342E89
:1008000050E0852E50E0952E60E089E00E948C003B
:10081000CE010197F1F761E089E00E948C00C501EB
:100820000197F1F760E089E00E948C00E4EAF0E0D3
:100830006491F1018491E82FF0E0EE0FFF1FE85979
:10084000FF4F8591949100E315E720E030E0462FBB
:100850000E942E03611571058105910509F44FC0B1
:100860006F5F7F4F8F4F9F4F9F706115710581059F
:10087000910509F444C00E94020628E23EE74CE0DC
:100880005DE30E94B90620E030E040E05FE30E94B3
:10089000B9066B017C0120E030E0A9010E94B4069A
:1008A00018160CF0BFC020E030E040E251E4C70170
:1008B000B6010E94CE0511E061E087FD02C010E0A4
:1008C00060E083E00E948C0020E030E0A901C701D5
:1008D000B6010E94CE0587FFAAC089E191E00E947F
:1008E0003B028EE291E00E943B020E9409012B0133
:1008F0003C0188ECC82ED12CE12CF12C7BC0C12C02
:10090000D12C90E8E92E9FEBF92ED9CF26013701A3
:10091000E89477F82FEF3FEF4FE75FE7C301B201AD
:100920000E94260781110DC02FEF3FEF4FE75FE7D1
:10093000C301B2010E94CE0518161CF480E491E0B8
:1009400085C02FEF3FEF4FE75FE4C701B6010E947C
:10095000B40618161CF484E491E078C02FEF3FEF42
:100960004FE75FECC701B6010E94CE0587FDF3CFCC
:100970002DEC3CEC4CE45DE3C701B6010E9462053E
:100980002B013C010E94D3056B017C010E940206F1
:100990009B01AC01C301B2010E9461052B013C0126
:1009A0004AE0C701B6010E9448026EE28DE591E07F
:1009B0000E94CE0120E030E040E251E4C301B201E8
:1009C0000E94B9060E94D30590E080E04AE00E94B0
:1009D00048023EC0F1E0CF1AD108E108F10828EE44
:1009E000420E23E0521E611C711CC114D104E104AB
:1009F000F10461F00E9409016419750986099709DB
:100A0000683E73408105910528F7F4CF8114910465
:100A100009F4FACE0E949801882309F4F5CE0E94C9
:100A20000000F2CE60E083E00E948C0010E081E3E1
:100A300091E00E943B02A7019601C701B6010E9406
:100A40002607882309F462CF8CE391E00E943B02E1
:100A500088E491E00E943B0282E191E0112309F4D5
:100A60003ECF86E191E03BCFEDE5F1E013821282CB
:100A700088EE93E0A0E0B0E084839583A683B783FB
:100A800084E091E09183808385EC90E09587848772
:100A900084EC90E09787868780EC90E0918B808B48
:100AA00081EC90E0938B828B82EC90E0958B848B31
:100AB00086EC90E0978B868B118E128E138E148E9F
:100AC00008955058BB27AA270E9479050C947A06EE
:100AD0000E946C0638F00E94730620F039F49F3FA4
:100AE00019F426F40C9469060EF4E095E7FB0C94D7
:100AF0006306E92F0E948B0658F3BA176207730743
:100B00008407950720F079F4A6F50C94AD060EF451
:100B1000E0950B2EBA2FA02D0B01B90190010C010D
:100B2000CA01A0011124FF27591B99F0593F50F425
:100B3000503E68F11A16F040A22F232F342F44277D
:100B4000585FF3CF469537952795A795F040539575
:100B5000C9F77EF41F16BA0B620B730B840BBAF045
:100B60009150A1F0FF0FBB1F661F771F881FC2F7B0
:100B70000EC0BA0F621F731F841F48F487957795C4
:100B80006795B795F7959E3F08F0B0CF9395880F7E
:100B900008F09927EE0F9795879508950E943F06D4
:100BA00008F481E008950E94930688F09F5798F01A
:100BB000B92F9927B751B0F0E1F0660F771F881F62
:100BC000991F1AF0BA95C9F714C0B13091F00E947C
:100BD000AD06B1E008950C94AD06672F782F8827F5
:100BE000B85F39F0B93FCCF3869577956795B395A3
:100BF000D9F73EF490958095709561957F4F8F4F12
:100C00009F4F0895E89409C097FB3EF49095809516
:100C1000709561957F4F8F4F9F4F9923A9F0F92FC2
:100C200096E9BB279395F695879577956795B79540
:100C3000F111F8CFFAF4BB0F11F460FF1BC06F5F26
:100C40007F4F8F4F9F4F16C0882311F096E911C038
:100C5000772321F09EE8872F762F05C0662371F059
:100C600096E8862F70E060E02AF09A95660F771F6D
:100C7000881FDAF7880F9695879597F90895990F49
:100C80000008550FAA0BE0E8FEEF16161706E80756
:100C9000F907C0F012161306E407F50798F0621B77
:100CA000730B840B950B39F40A2661F0232B242B4C
:100CB000252B21F408950A2609F4A140A6958FEF6B
:100CC000811D811D089597F99F6780E870E060E0BD
:100CD00008959FEF80EC089500240A9416161706D5
:100CE00018060906089500240A941216130614061D
:100CF00005060895092E0394000C11F4882352F080
:100D0000BB0F40F4BF2B11F460FF04C06F5F7F4F37
:100D10008F4F9F4F089557FD9058440F551F59F01E
:100D20005F3F71F04795880F97FB991F61F09F3FD8
:100D300079F087950895121613061406551FF2CF01
:100D40004695F1DF08C0161617061806991FF1CF51
:100D500086957105610508940895E894BB27662778
:100D60007727CB0197F908950E943F0608F48FEF8B
:100D700008950E94CC060C947A060E946C0638F006
:100D80000E94730620F0952311F00C9463060C94D6
:100D9000690611240C94AE060E948B0670F3959F91
:100DA000C1F3950F50E0551F629FF001729FBB2762
:100DB000F00DB11D639FAA27F00DB11DAA1F649FFE
:100DC0006627B00DA11D661F829F2227B00DA11DB1
:100DD000621F739FB00DA11D621F839FA00D611D37
:100DE000221F749F3327A00D611D231F849F600D58
:100DF000211D822F762F6A2F11249F5750409AF081
:100E0000F1F088234AF0EE0FFF1FBB1F661F771F0C
:100E1000881F91505040A9F79E3F510580F00C94D7
:100E200063060C94AE065F3FE4F3983ED4F38695D8
:100E300077956795B795F795E7959F5FC1F7FE2B77
:100E4000880F911D9695879597F908950E943F0602
:100E5000880B990B0895A1E21A2EAA1BBB1BFD015A
:100E60000DC0AA1FBB1FEE1FFF1FA217B307E40789
:100E7000F50720F0A21BB30BE40BF50B661F771FE1
:100E8000881F991F1A9469F76095709580959095C1
:100E90009B01AC01BD01CF010895EE0FFF1F05902E
:100EA000F491E02D0994F894FFCF00000000CE01EA
:100EB0002E015B011B028C016A017E014F46460038
:100EC0004F4E0044697374616E63653A20686F72B7
:100ED0007320706C616765000D0A0044697374616A
:100EE0006E63653A20006E616E00696E66006F7613
:0E0EF000660020636D207C204C45443A2000B3
:107E0000112484B714BE81FFF0D085E080938100F7
:107E100082E08093C00088E18093C10086E0809377
:107E2000C20080E18093C4008EE0C9D0259A86E02C
:107E300020E33CEF91E0309385002093840096BBD3
:107E4000B09BFECF1D9AA8958150A9F7CC24DD24C4
:107E500088248394B5E0AB2EA1E19A2EF3E0BF2EE7
:107E6000A2D0813461F49FD0082FAFD0023811F036
:107E7000013811F484E001C083E08DD089C08234E0
:107E800011F484E103C0853419F485E0A6D080C0E4
:107E9000853579F488D0E82EFF2485D0082F10E0AE
:107EA000102F00270E291F29000F111F8ED06801E7
:107EB0006FC0863521F484E090D080E0DECF843638
:107EC00009F040C070D06FD0082F6DD080E0C81688
:107ED00080E7D80618F4F601B7BEE895C0E0D1E017
:107EE00062D089930C17E1F7F0E0CF16F0E7DF06D8
:107EF00018F0F601B7BEE89568D007B600FCFDCFD4
:107F0000A601A0E0B1E02C9130E011968C91119780
:107F100090E0982F8827822B932B1296FA010C0160
:107F200087BEE89511244E5F5F4FF1E0A038BF0790
:107F300051F7F601A7BEE89507B600FCFDCF97BE46
:107F4000E89526C08437B1F42ED02DD0F82E2BD052
:107F50003CD0F601EF2C8F010F5F1F4F84911BD097
:107F6000EA94F801C1F70894C11CD11CFA94CF0C13
:107F7000D11C0EC0853739F428D08EE10CD085E9AC
:107F80000AD08FE07ACF813511F488E018D01DD067
:107F900080E101D065CF982F8091C00085FFFCCF94
:107FA0009093C60008958091C00087FFFCCF809118
:107FB000C00084FD01C0A8958091C6000895E0E648
:107FC000F0E098E1908380830895EDDF803219F02E
:107FD00088E0F5DFFFCF84E1DECF1F93182FE3DFCA
:107FE0001150E9F7F2DF1F91089580E0E8DFEE27F6
:047FF000FF270994CA
:027FFE00040479
:00000001FF
